:020000040000FA
:100000000C94B8020C94E5120C94BE120C94E0020D
:100010000C94E0020C94E0020C94E0020C94E002D8
:100020000C94E0020C94E0020C94E0020C94E002C8
:100030000C94E0020C94E0020C94E0020C94E002B8
:100040000C9474120C94E0020C9432130C940C1364
:100050000C94E0020C94E0020C94E0020C94E00298
:100060000C9464130C94E00205A84CCDB2D44EB9A4
:100070003836A9020C50B9918688083CA6AAAA2A4B
:10008000BE000000803F0000000023002600290081
:1000900000000000240027002A00000000002500C6
:1000A00028002B00040404040404040402020202D5
:1000B000020203030303030301020408102040802B
:1000C00001020408102001020408102000000008AA
:1000D000000201000003040700000000000000000F
:1000E0005F00020204040304050C0BFFFE08FE0877
:1000F000FE016A032C0471200500CC09210882C48A
:10010000C991F2082207336D4BB202231087447C59
:10011000CAA81C3365548E9932AA012410A53C6BE1
:100120001E2AA938E28849A5A1230025158AC49D65
:10013000D44A655523554995544649E5A872560059
:10014000261188C4AC862A2395A186494B73A4A5A1
:10015000002706316DCA00280BA4B47A8C4ABA7500
:100160004601290AA4B44A46D974C91A2A09555C19
:100170006B55AD66042B0B554C6B4671C88C220039
:100180002C0742B4C9480A2D06135CCA002E062269
:10019000C4C9082F0A84C47A99638E3903300E8546
:1001A00044DB52238D34D24823A905310984459B71
:1001B0009ABE4600320C8544DB52236929F338028B
:1001C000330E8544DB5223498D461A492D00340BEA
:1001D0008544EB95549A636439350D8544CB2BA344
:1001E00091D14823A905360E8544DB52238FA446BE
:1001F0001A492D00370A8444CBA1638E2E00380E95
:100200008544DB5223A9A5461A492D00390E8544A1
:10021000DB52238DA4461E492D003A0752C4C988DB
:10022000233B0972B4C9882329003C0956CC3B9270
:1002300036D6583D083554CBD070083E0A56CC8B84
:10024000C61A4B1B013F0A8544DBB2A5CCB409405A
:1002500012A93CFD465A6698E248FE5432939A1E13
:1002600011411289433CCAD4C61B468DA21E236687
:10027000A4E608420E8744CC694935A425951C4361
:100280000143108744ECAA47461B6AA8518DE248F7
:1002900000440F88C4CCADA3565A69A5954E63029D
:1002A000450E86C4CB25938A23AA28931C23460E89
:1002B00086C4CB25934C2A8EA8A21E11470E8744D4
:1002C000ECAA47461BCAA155962B48128944CD4833
:1002D0002369A9E518514B2DB51A6904490984C44D
:1002E000CA48D2D7084A0C86C4EBC81A69E42BCA9C
:1002F000094B1189C4CC88769619A90C8746525BA4
:10030000230E4C0F86C4CBC81A69A4914632C9315A
:10031000024D158B44CEC823ED995492492599542A
:1003200092D18CD652234E1188C48C5E3ACE38526C
:100330004C23C699D54E004F0E8744ECAEF4C8232B
:100340008FAC729E00500F8744CC694925D5901A16
:100350006A3432005113983CEC46396AA59556230D
:1003600049A5D148192A00520D88C4CC2D3DF3D09F
:10037000D235D200530D86C4DB39F2D068E811D7EC
:1003800002540E86C4CB915C51238D34D223015587
:100390001088C4CC484B471D75D451479D4704561F
:1003A0001188C4CC484B479D55462A2395A1C61AAF
:1003B00057158B44CE486A4919CDA8928A2AA9BC00
:1003C00036D21A6909581088C4CC484BC795D1C693
:1003D0001BA599D511591188C4CC484B679591CA72
:1003E00050638D351C115A0B86C4CB91F57CEB31D3
:1003F000025B08A334CA50FE1A5C0C84C44ACE289F
:10040000679433CA015D08A334CAF2D7105E0A6547
:10041000546B4679A65A075F061634CB0160062353
:10042000748A14610954C4CA56238D01620E86C4AD
:100430008B461A69641D71C4B50063095544DB928B
:100440005BA605640E86C4FB461AA931E288232DFB
:100450000365095544DB52E34623660C85C4EA5222
:10046000498EA8CD9100670D86343B8A5339F7D861
:10047000632400680E86C48B461A69641D71C4111A
:1004800005690A84C49AD470BA46006A09A3B49A6A
:10049000BDBC46026B0E86448B461A69648D38A239
:1004A000B2066C0884C4CAF46B046D0D5AC48D92F4
:1004B000EA11E5887244036E0B56C48B52471C71D7
:1004C00044016F0C56C4DB4872C411D54800700D4E
:1004D00076B48B52471C718CA4D106710E77B4DBB5
:1004E000505249A5A6D250A311720954C48A1A23A6
:1004F0009A00730954C4DA90230E05740973445AA0
:1005000052439902750B56C48B1C71C491960176A7
:100510000B56C4CBB2A2CA1A4900770C5944CDF28B
:100520008A4A65A59109780A56C4CBB2B24ED60064
:10053000790D76B4CBB2A2CA1AC9AD11007A0855AA
:1005400044CB25CD317B0AA4B4AA9296966E017C49
:10055000068146CB217D0AA4B48A96B6922E097EE6
:100560000726DCDB520B00000004FFFF00007F14B5
:1005700011241FBECFEFD8E0DEBFCDBF12E0A0E058
:10058000B1E0E0E5F8E302C005900D92AE30B107AE
:10059000D9F728E0AEE0B2E001C01D92AE33B20759
:1005A000E1F712E0C8EBD2E004C02197FE010E94FF
:1005B000191CC73BD107C9F70E9491150C94261C42
:1005C0000C940000662329F06A3019F0862F90E021
:1005D00008958FEF9FEF0895AF92BF92CF92DF9271
:1005E000EF92FF920F93CF93DF93EC01DA01790141
:1005F000942F9770E1E0F0E09F01092E01C0220FD7
:100600000A94EAF7522F6E018AE8C80ED11CF6014F
:10061000808140E0823018F4422F813049F15D0141
:10062000F8EFAF22E8ADF9AD28813981D9015096B4
:100630008C918A9D90018B9D300D1124620F731F48
:10064000DF01A60FB71F01111AC0EA0EFB1E8C9125
:10065000842B85278D93AE15BF05C9F7DF91CF9108
:100660000F91FF90EF90DF90CF90BF90AF900895E3
:1006700050E0D5CF440F550FE114F10479F33C91CC
:10068000342B35273C939F5F9770E1E0EE1AF10819
:100690009111F0CF2CAD3DADA20FB31FF6018081BB
:1006A000823028F4813009F051E041E0E5CF51E09B
:1006B000E3CF80E0089590E080E00895CF93DF934A
:1006C000C8EAD7E08FAFEAADFBAD0190F081E02D35
:1006D0008CEA97E00995EAADFBAD0280F381E02D4D
:1006E0008CEA97E0DF91CF910994E9E6F0E0808110
:1006F0008C608083E99A08959B01DC011896ED9146
:10070000FC9141E067E10994833081F028F4813065
:1007100099F08230A9F008958730A9F08830C9F0A7
:100720008430B1F4809180008F7D03C0809180007F
:100730008F7780938000089584B58F7784BD089566
:1007400084B58F7DFBCF8091B0008F778093B00010
:1007500008958091B0008F7DF9CF1F93CF93DF93E1
:10076000282F30E0F901E453FF4F8491F901E85458
:10077000FF4FD491F901EC55FF4FC491CC23A9F060
:10078000162F81110E948403EC2FF0E0EE0FFF1F63
:10079000E656FF4FA591B4918FB7F894EC911111E3
:1007A00008C0D095DE23DC938FBFDF91CF911F91DE
:1007B0000895DE2BF8CFCF93DF9390E0FC01E8544F
:1007C000FF4F24918C559F4FFC0184918823C9F0E1
:1007D00090E0880F991FFC01E057FF4FA591B4915D
:1007E000FC01E656FF4FC591D49161110DC09FB732
:1007F000F8948C91209582238C93888128232883D8
:100800009FBFDF91CF910895623051F49FB7F89464
:100810003C91822F809583238C93E8812E2BEFCF00
:100820008FB7F894EC912E2B2C938FBFEACF3FB764
:10083000F8948091070390910803A0910903B09167
:100840000A0326B5A89B05C02F3F19F00196A11DEC
:10085000B11D3FBFBA2FA92F982F8827BC01CD010A
:10086000620F711D811D911D42E0660F771F881F69
:10087000991F4A95D1F708950895AF92BF92CF92EC
:10088000DF92EF92FF920F931F93CF93DF936C0150
:100890007B018B01040F151FEB015E01AE18BF0831
:1008A000C017D10759F06991D601ED91FC910190E3
:1008B000F081E02DC6010995892B79F7C501DF91FB
:1008C000CF911F910F91FF90EF90DF90CF90BF904D
:1008D000AF900895FC01538D448D252F30E0842F77
:1008E00090E0821B930B541710F0CF960895019758
:1008F0000895FC01918D828D981761F0A28DAE0F45
:10090000BF2FB11D5D968C91928D9F5F9F73928FCB
:1009100090E008958FEF9FEF0895FC01918D828DF7
:10092000981731F0828DE80FF11D858D90E00895C4
:100930008FEF9FEF0895FC01918D228D892F90E01C
:10094000805C9F4F821B91098F73992708958BE0DC
:1009500093E00E949B0421E0892B09F420E0822F80
:10096000089580E090E0892B29F00E94A70481116E
:100970000C9400000895FC01A48DA80FB92FB11D9F
:10098000A35ABF4F2C91848D90E001968F739927C5
:10099000848FA689B7892C93A089B1898C918370A3
:1009A00080648C93938D848D981306C00288F3899C
:1009B000E02D80818F7D80830895EF92FF920F93C9
:1009C0001F93CF93DF93EC0181E0888F9B8D8C8DFB
:1009D00098131AC0E889F989808185FF15C09FB7EF
:1009E000F894EE89FF896083E889F98980818370B2
:1009F000806480839FBF81E090E0DF91CF911F9161
:100A00000F91FF90EF900895F62E0B8D10E00F5F81
:100A10001F4F0F731127E02E8C8D8E110CC00FB657
:100A200007FCFACFE889F989808185FFF5CFCE01EF
:100A30000E94BB04F1CFEB8DEC0FFD2FF11DE35AAB
:100A4000FF4FF0829FB7F8940B8FEA89FB89808172
:100A50008062CFCFCF93DF93EC01888D8823B9F0EC
:100A6000AA89BB89E889F9898C9185FD03C08081B9
:100A700086FD0DC00FB607FCF7CF8C9185FFF2CF36
:100A8000808185FFEDCFCE010E94BB04E9CFDF91CD
:100A9000CF91089520916B02260F3327331F213207
:100AA0003105ECF420918F02FC0190E080E02430CD
:100AB00069F082E00895A0916B022191AC01455B41
:100AC0005D4FA40FB52FB11D2C930196861798F397
:100AD00080916B02680F60936B0280E0089581E063
:100AE000089508958FEF9FEF08958FEF9FEF08957A
:100AF0008091440290E09195819591090895CF935A
:100B0000DF93CB01EA01642F0E944A05CE01DF91F9
:100B1000CF910895CF93DF931F92CDB7DEB769834E
:100B200061E0CE0101960E944A0581E090E00F90BD
:100B3000DF91CF910895DC011A96ED91FC9130E0A0
:100B400020E00994DC011496ED91FC9130E020E066
:100B500040E060E109949A01DC011696ED91FC9168
:100B6000462F67E10994EF92FF920F931F93CF9363
:100B7000DF931F92CDB7DEB77C018B01D8016C915A
:100B8000673129F150F46531A0F40F90DF91CF91D6
:100B90001F910F91FF90EF9008956A3118F16E3F09
:100BA000A1F7F8014181498369E2C7010E949B05D1
:100BB0000BC0F80141814983D7011696ED91FC9154
:100BC00030E020E0C70109950E5F1F4FD7CFF80135
:100BD00081818983AE014F5F5F4F61E0C7010E9451
:100BE000AB05F2CF0F5F1F4FD7011696ED91FC9129
:100BF00030E020E040E0C7010995C0CF462FDC017E
:100C00001696ED91FC9130E020E065E10994CF92D9
:100C1000DF92EF92FF921F93CF93DF937C01EB0162
:100C20006A016A8188E0689FB00111246F73606473
:100C3000C7010E94FE05F6016481686BC7010E942E
:100C4000FE058C81882371F12A8188E0820F887FDC
:100C5000821B9B81692F891708F4682F260F2A832E
:100C6000961B9B83162F110F110F110F488159816D
:100C7000612FC7010E94AB0568817981610F711DE9
:100C8000798368838B8181110AC0F601808191810B
:100C90009983888382818B838C8181508C838A8124
:100CA000877079F6DF91CF911F91FF90EF90DF90E1
:100CB000CF900895EF92FF920F931F93CF93DF93FE
:100CC00000D000D01F92CDB7DEB78C0179016A3019
:100CD00009F45CC080F4693009F44EC080E00F90E4
:100CE0000F900F900F900F90DF91CF911F910F9168
:100CF000FF90EF9008956B3009F4B5C06F3071F735
:100D0000F901808191819A83898383818B83928188
:100D10009C834D838830D8F4D8011696ED91FC91D0
:100D200030E020E041E068E1C8010995A701BE017B
:100D30006F5F7F4FC8010E940706D8011696ED919C
:100D4000FC9130E020E040E069E1C80109958B8129
:100D50008031D0F4D8011696ED91FC9130E020E07E
:100D600042E068E1C8010995A701BE016F5F7F4FAE
:100D7000C8010E9407066CC081E191E0D80111967C
:100D80009C938E9354961C9281E0A9CFDC011A9615
:100D9000ED91FC9130E020E040E068E20995D80157
:100DA0001696ED91FC9130E020E040E064E1C8014E
:100DB000099541E06BE4C8010E949B05D801ED91C3
:100DC000FC91448169E2C8010E949B0540E06BE40C
:100DD000C8010E949B05D801ED91FC91448169E214
:100DE000C8010E949B0541E06BE4C8010E949B057D
:100DF000D801ED91FC91458169E2C8010E949B05F3
:100E0000D8011696ED91FC9130E020E041E068E1D8
:100E1000C80109956EE071E0C8010E94B305D801D0
:100E20001696ED91FC9130E020E040E069E1C801C8
:100E30000995D8011696ED91FC9130E020E042E052
:100E400068E1C80109956EE071E0C8010E94B30530
:100E5000D8011696ED91FC9130E020E040E069E188
:100E6000C801099591CFDC011696ED91FC9130E017
:100E700020E041111FC041E068E109956BE071E09D
:100E8000C8010E94B305D8011696ED91FC9130E09F
:100E900020E040E069E1C8010995D8011696ED917E
:100EA000FC9130E020E042E068E1C80109956BE088
:100EB00071E0CBCF41E068E1099568E071E0C801DD
:100EC0000E94B305D8011696ED91FC9130E020E028
:100ED00040E069E1C8010995D8011696ED91FC91B1
:100EE00030E020E042E068E1C801099568E071E087
:100EF000ACCF0F931F93CF938C01C62F462F417019
:100F000069E40E949B05C1FB442740F96EE4C801D7
:100F10000E949B05C2FB442740F96FE4C801CF91B2
:100F20001F910F910C949B05EF92FF921F93CF930B
:100F3000DF93EC01142F7901683109F46CC040F49F
:100F4000643109F45CC0673109F448C080E049C0ED
:100F5000693109F4B6C06032C9F76AE458C0D701F4
:100F60002D917D0111506CE272E090E080E0422F03
:100F700050E0DB01ED91FD91BD0120FF38C09C01E7
:100F8000245C3D4FD9013C912081232B20839A0181
:100F90003595279501968830910549F79091230260
:100FA000E0912102F09122028081892B8083E881E7
:100FB000F98146856CE2CE010E949B05909120024A
:100FC000E0912102F0912202808189238083E881CF
:100FD000F98147856CE2CE010E949B051111BFCFBC
:100FE00081E0DF91CF911F91FF90EF9008959C01D8
:100FF0002C5D3D4FD9013C9120812323C7CFE8814F
:10100000F981418169E40E949B0540E068E4CE01DA
:101010000E949B05E5CF642F0E947907A881B981C2
:10102000EA85FB8530E020E012964C916CE2CE011F
:1010300009958EA190E0FC01EC55FF4FE491F0E0A2
:10104000EE0FFF1FE656FF4F259134913093220299
:1010500020932102FC01E854FF4FE491E093230226
:10106000809123028095809320026E964CE252E09C
:10107000ACE3B2E030E020E0899190E0FC01EC5577
:10108000FF4FE491F0E0EE0FFF1FE656FF4F659132
:101090007491FA0161937193AF01FC01E854FF4F21
:1010A000E491ED93F901E45CFD4F80818095F901B5
:1010B000EC5DFD4F80832F5F3F4F28303105E1F617
:1010C0008FCFA881B981EA85FB8530E020E01396B7
:1010D0004C916CE20995612FCE010E94790780CF77
:1010E000CF93DF931F92CDB7DEB76983BE016F5FE9
:1010F0007F4F0E947C030F90DF91CF910895462F80
:10110000DC011896ED91FC9130E020E060E209945A
:10111000EF92FF920F931F93CF93DF938C01C62F13
:10112000D42F7901673130F46531B8F4643131F08E
:1011300080E01BC0673101F16A31D0F7D801189601
:10114000ED91FC9197014D2F6C2FC801DF91CF914C
:101150001F910F91FF90EF90099460E00E947F082B
:101160006D2FC8010E94700881E0DF91CF911F911F
:101170000F91FF90EF90089561E00E947F08DECF0D
:101180000F93FC01E05CFF4F0190F081E02D4E1BBE
:101190005F0BDC01D496ED91FC9109950F910895B8
:1011A000CF93DF93FC01A081B18182AD90E09C01DF
:1011B00043E0220F331F4A95E1F737AF26AF509631
:1011C0002C91509748E0249F9001112435AF24AF13
:1011D00023AD30E0B90153E0660F771F5A95E1F770
:1011E000EF01C05CDF4F7983688351964C91519732
:1011F000E901C80FD91F50E04C175D0718F4CA0168
:10120000821B930BEF01CE5BDF4F798368832296BD
:1012100023E0880F991F2A95E1F7860F971F99837E
:101220008883229654968D919C91559799838883B3
:10123000E85BFF4F56968D919C9191838083DF915F
:10124000CF9108950F931F93FC01E25BFF4F019034
:10125000F081E02DDC01A05BBF4F0D90BC91A02D73
:101260004A175B0740F4E017F10748F00417150729
:1012700030F080E019C0E017F107C0F3FACFFC01AD
:10128000E65BFF4F40815181845B9F4FFC01808171
:1012900091816817790758F481E04217530720F0CD
:1012A00081E02617370728F71F910F9108954217FD
:1012B0005307B0F3DECF2F923F924F925F926F921F
:1012C0007F928F929F92AF92BF92CF92DF92EF92D6
:1012D000FF920F931F93CF93DF93CDB7DEB72A977B
:1012E0000FB6F894DEBF0FBECDBF9A878987865BA5
:1012F0009F4F9A838983FC0111821082E985FA85C8
:10130000EA5BFF4F4080518029853A85245B3F4F3F
:101310003C832B83F90151824082E985FA85EE5B9B
:10132000FF4F2080318029853A85225B3F4F3E83E5
:101330002D83F90131822082E985FA85EC5BFF4F2C
:101340006080718029853A85205B3F4F38872F83E5
:10135000F90171826082E985FA85E85AFF4FE080E1
:10136000F180E985FA85EC5AFF4FA080B180E985CC
:10137000FA85EA5AFF4FC080D180E985FA85EE5A96
:10138000FF4F8080918087019501A601B401898576
:101390009A850E94220929853A852C573F4F3A8722
:1013A000298781111BC0F90110822A960FB6F89483
:1013B000DEBF0FBECDBFDF91CF911F910F91FF9088
:1013C000EF90DF90CF90BF90AF909F908F907F90E5
:1013D0006F905F904F903F902F90089581E0E98546
:1013E000FA8580838114910421F0E981FA81918248
:1013F0008082A414B50420F4EB81FC81B182A08228
:101400002C143D0420F4ED81FE81D182C082E614CB
:10141000F70458F6EF81F885F182E082C6CF0F938A
:10142000CF93DF93E02FDC01AC57BF4FFC91FF233C
:1014300009F460C02115310509F45CC02230310582
:1014400038F0023009F04AC06F5F7F4F621B730BA8
:101450000E2F0170E0FD52C0FC01E25BFF4F0190D6
:10146000F081E02D4E175F0708F444C0FC01E05BFB
:10147000FF4F0190F081E02D4E175F07D8F5FC017A
:10148000E45BFF4F0190F081E02DDC01A65BBF4FD4
:101490000D90BC91A02D260F371F2617370738F562
:1014A0006E177F0718F59F0121503109A217B30766
:1014B00008F56A177B0708F4BD012E173F0708F4EB
:1014C000F901E61BF70BEC01AEA9BFA914960D902C
:1014D000BC91A02D9F01FD0109950CC0033009F0BE
:1014E000B7CF4F5F5F4F421B530BB2CFBD016E179B
:1014F0007F07E0F2DF91CF910F910895FC01E65B49
:10150000FF4F0190F081E02D6E177F0798F3FC01EB
:10151000E45BFF4F0190F081E02D6E177F0750F7DD
:10152000FC01E05BFF4F0190F081E02DDC01A25B4C
:10153000BF4F0D90BC91A02D240F351F24173507E8
:10154000A8F44E175F0788F49F0121503109A217B4
:10155000B30780F64A175B0708F4AD012E173F0763
:1015600008F4F901E41BF50BAECFAD014E175F0790
:1015700008F6EDCF213069F038F0223079F0840F91
:10158000911D47FD9A950895860F911D67FD9A95C7
:101590000895841B910947FD93950895861B910931
:1015A00067FD93950895213069F038F0223079F085
:1015B000861B910967FD93950895840F911D47FD42
:1015C0009A950895860F911D67FD9A950895841B3D
:1015D000910947FD939508953F924F925F926F92C4
:1015E0007F928F929F92AF92BF92CF92DF92EF92B3
:1015F000FF920F931F93CF93DF937C01162F442EFE
:10160000EC01C25ADF4F5E806F806C018AE8C80E21
:10161000D11C78847518312E711608F4372C8C8003
:101620009D800E85202F462D652D8A819B810E94ED
:10163000BA0A5C01202F462D652DC4010E94D30AF1
:10164000AC01442079F08C85F6018083232D30E0B5
:10165000B501C7010E940F0A171548F017196394C6
:10166000512CD7CF8B858111F7CF8D85EDCF150DFF
:101670001E836F82DF91CF911F910F91FF90EF90AA
:10168000DF90CF90BF90AF909F908F907F906F90A2
:101690005F904F903F900895DC011A964C911A97F5
:1016A000ED91FC911197249130E0042E02C0359504
:1016B00027950A94E2F7842F860F883068F03196D8
:1016C0001196FC93EE93E49198E0941B01C0EE0F09
:1016D0009A95EAF72E2B88501A968C938FEF9FEFEE
:1016E00001C0880F6A95EAF7809582230895FC016E
:1016F000E60FF11D849190E0982F88273196E491B0
:101700008E0F911D08958091060890910708805EC4
:10171000904009F4AEC0E0EEF0E0F0930708E093EB
:101720000608E491E0931908E1EEF0E0E491E0931B
:101730001A08E2EEF0E0E491E0931B08E3EEF0E03B
:10174000E491E0931C08E4EEF0E0E491E0931D08DE
:10175000E5EEF0E0E491E0931E08E6EEF0E0E491BF
:10176000E0931F08E7EEF0E0E491E0932008E8EE54
:10177000F0E0E491E0932108E9EEF0E0E491E093F9
:101780002208EAEEF0E0E491E0932308EBEEF0E0CB
:10179000E491E0932408ECEEF0E0E491E093250876
:1017A000EDEEF0E0E491E0932608EEEEF0E0E49157
:1017B000E0932708EFEEF0E0E491E0932808E0EFF3
:1017C000F0E0E491E093290861E180EE90E00E946E
:1017D000770B90932B0880932A0863E180EE90E0CA
:1017E0000E94770B90932D0880932C0865E180EE82
:1017F00090E00E94770B90932F0880932E088091A1
:10180000060890910708892BA1F180912608809302
:10181000320840912708409333089091310899236A
:1018200041F1913069F490912808891714F490934C
:101830003208809129088417E4F4809333080895CE
:101840003091230820912508082E000C990B622F57
:10185000022E000C770B630F711D37FD7A958617EA
:1018600097071CF4320F30933208241714F4209396
:1018700033080895AF92BF92CF92DF92EF92FF921A
:101880000F931F93CF93DF9300D000D01F92CDB75B
:10189000DEB78C01DC01DA96AC90DA97DB96EC903F
:1018A000DB97ED91FC91B188FE2CD12CC12CD80195
:1018B000ED91FC9111978089D8962D913C911C82D5
:1018C000FD828B83B8E08B9FC00111248C9DA00109
:1018D0008D9D500D9C9D500D1124240F351F3A8372
:1018E0002983D8011496ED91FC919E012F5F3F4F03
:1018F00041E06FE0C8010995F3948F2D8E198A1588
:1019000028F4BFEFCB1ADB0AFB1488F20F900F907C
:101910000F900F900F90DF91CF911F910F91FF903B
:10192000EF90DF90CF90BF90AF9008958F929F92ED
:10193000AF92BF92CF92DF92EF92FF921F93CF931D
:10194000DF93EC016C32B0F46A32E8F5683241F1B1
:10195000693209F445C080E06034B0F16F73FE0174
:10196000E60FF11D868D8F3F71F1603108F06EC07A
:10197000642F13C06D3209F457C068F384EB860FEF
:10198000823048F76F73C60FD11D8E8D41115AC03A
:1019900061E00E94DB0360E08E8D0E94AD0313C006
:1019A0007C012EE1E20EF11CD0E0F70181917F0174
:1019B0008F3F31F061E0D03108F062E00E94DB033C
:1019C000DF5FD63191F781E0DF91CF911F91FF90DA
:1019D000EF90DF90CF90BF90AF909F908F90089541
:1019E000C42ED12CF12CE12C0E9417044B015C0178
:1019F000C114D104E104F10431F30E941704681901
:101A000079098A099B09683E73408105910580F335
:101A1000F1E0CF1AD108E108F10828EE820E23E0A8
:101A2000921EA11CB11CE4CF85E090E0433010F081
:101A300082E090E0880F991F880F991F0597019702
:101A4000F1F7C1CF62E00E94DB03BDCF282F30E069
:101A5000F901E453FF4F8491F901E854FF4FF490EA
:101A6000F901EC55FF4F1491112379F081110E9477
:101A70008403E12FF0E0EE0FFF1FEA57FF4FA5911F
:101A8000B491EC91FE2281E009F480E0898F9BCF34
:101A90000E9417046093F8027093F9028093FA028F
:101AA0009093FB02E9988CE394E090930301809378
:101AB000020181E08093000308950E94170460935F
:101AC000FC027093FD028093FE029093FF02E8985F
:101AD0008CE394E0909301018093000181E0809376
:101AE00001030895CF92DF92EF92FF920F931F931D
:101AF000CF93DF936C01EB017B01E40EF51E10E048
:101B000000E0CE15DF0561F06991D601ED91FC9101
:101B10000190F081E02DC6010995080F191FF1CF42
:101B2000C801DF91CF911F910F91FF90EF90DF904F
:101B3000CF9008952F923F924F925F926F927F9233
:101B40008F929F92AF92BF92CF92DF92EF92FF92CD
:101B50000F931F93CF93DF93CDB7DEB728970FB6C0
:101B6000F894DEBF0FBECDBF7C016C0124E0C20E35
:101B7000D11CFC01E057FF4F0190F081E02DC60120
:101B800009958C018E3F9F4F08F061C0370184E9B1
:101B9000680E711CF3010190F081E02DFD83EC8350
:101BA0005701F2E9AF0EB11CF501808091809701D9
:101BB00020593F4F3B832A83F9018081813009F40A
:101BC00070C008F45FC0823009F476C0833009F435
:101BD00082C0F701EC59FF4F9182808232962C81AE
:101BE0003D813183208338978081918147969D8301
:101BF0008C830F3F110511F008F020C1B696013615
:101C0000110530F40134110558F0F701EE57FF4F7C
:101C1000808191812C813D81280F391F3D832C8348
:101C20008C819D810196FC01249121115FC090E07F
:101C300080E0EA81FB812081213009F4C1C108F4F0
:101C4000B7C1223009F4BEC1233009F4C3C181E019
:101C500090E028960FB6F894DEBF0FBECDBFDF919F
:101C6000CF911F910F91FF90EF90DF90CF90BF9099
:101C7000AF909F908F907F906F905F904F903F902C
:101C80002F900895F701E05AFF4F0190F081E02D69
:101C9000C60109952C813D81280F391F3D832C8376
:101CA00098CFF701E05AFF4F0190F081E02DC60177
:101CB0000995881A990A8DCFF701E05AFF4F0190D4
:101CC000F081E02DC6010995EC81FD81E81BF90B3F
:101CD000FD83EC837ECFF701E05AFF4F0190F08146
:101CE000E02DC6010995880E991E73CFEC81FD8108
:101CF00024912017110609F09AC0CF01029600978F
:101D000009F495CFF701EE59FF4FF887EF839183E0
:101D100080831286739660818F8198850E944C0B18
:101D2000EF81F8858087F701EA58FF4F60818F8146
:101D300098850E944C0B582EEF81F885818797017A
:101D400022573F4F3D832C83F9019081EF81F88525
:101D5000948781E0911180E0EF81F8858587F70114
:101D6000E958FF4F8080682D8F8198850E944C0B29
:101D7000382EF701E858FF4F2080622D8F8198851B
:101D80000E944C0B982EF701E758FF4F1081612FEE
:101D90008F8198850E944C0B9FEF910F01E010E01E
:101DA000980101C0220F9A95EAF7821B8E83EF817A
:101DB000F885408414140CF0C4C08A94C80101C092
:101DC000880F8A94EAF7381AF685F983950C2A94D5
:101DD000C80101C0880F2A94EAF7282E29182F2F4E
:101DE000422D632DEF81F885828193810E94BA0A8A
:101DF0004C01EF81F885938382832981422D632DE5
:101E0000848195810E94D30AEF81F885958384832C
:101E1000F981F13009F49AC008F44EC0F23009F4A7
:101E2000A4C0F33009F4B5C0BC0194014FC0FC015B
:101E300084912C813D81280F311DF0CEF701EA57A6
:101E4000FF4F80819181EC81FD81E80FF91FFD83B7
:101E5000EC834F0160E0C4010E94770B2C813D812F
:101E6000280F391F3D832C8362E0C4010E94770B49
:101E700034E0830E911C8017910760F3EC81FD81A3
:101E8000849190E0982F88273196E4918E2B0097CB
:101E900009F4CDCE0817190721F48C819D81039692
:101EA0002ECFEC81FD813296E4912C813D812E0F65
:101EB000311D3D832C83E2CF9401240D311D47FC5D
:101EC0003A95BC01650D711D57FC7A958B01AC01EB
:101ED000B401C6010E942209882399F1EF81F88597
:101EE000168217824701F3E78F0E911C24E7E20E5A
:101EF000F11CF40160818F8198850E944C0B082FA2
:101F0000F70160818F8198850E944C0B182F40E06B
:101F1000602FC6010E94EC0A41E0612FC6010E94B9
:101F2000EC0A61E08F8198850E944C0B8111EFCF04
:101F3000EF81F88587818515E4F28485EC81FD8148
:101F40008083FE818F2FFF0F990B73CE0519110926
:101F500057FC139594012F5F3F4FBC01640D711D19
:101F600047FC7A95800E911EB1CFA8014419510902
:101F700047FC539594012F5F3F4F0519110957FCFA
:101F80001395BC016F5F7F4F800F911F840E951ECC
:101F90009DCF9401250D311D57FC3A950419110967
:101FA00047FC1395BC016F5F7F4F800F911F8ECF51
:101FB000F50120813181820F931F9183808347CE69
:101FC000F301F7CFF50120813181281B390B3183D3
:101FD00020833DCEF301F7CF089590E080E008958F
:101FE000E091EC02F091ED02E830F105C0F4E5502B
:101FF000F04F0C94191C0310231025102B102D10DA
:10200000371039103F1060E08BE00E94AD0360E0B4
:102010008CE00E94AD0360E08DE00E94AD038DE591
:102020009DE090930101809300018091690083609D
:1020300080936900E89A88E49DE09093030180937F
:1020400002010C94750361E0DFCF60E08BE00E9439
:10205000AD0361E0DDCF61E0F9CF60E08BE00E948D
:10206000AD0360E08CE00E94AD0361E0D5CF61E09C
:10207000F5CF60E08BE00E94AD0361E0F3CF61E05B
:10208000F9CFFB0101900020E9F73197AF01461B22
:10209000570BDC01ED91FC910280F381E02D099456
:1020A0008F929F92AF92BF92EF92FF920F931F93E6
:1020B000CF93DF93CDB7DEB7A1970FB6F894DEBF0D
:1020C0000FBECDBF7C01FA01CB0119A2223008F46A
:1020D0002AE08E010F5D1F4F822E912CB12CA12C76
:1020E000BF01A50194010E94F71BF901CA016A30E2
:1020F0000CF5605DD8016E938D01232B242B252BCD
:1021000079F790E080E0109721F0BD01C7010E94AF
:102110004110A1960FB6F894DEBF0FBECDBFDF9180
:10212000CF911F910F91FF90EF90BF90AF909F9034
:102130008F900895695CDECFCF93DF93BC018BE075
:1021400093E00E944110EC016DE471E08BE093E0BC
:102150000E9441108C0F9D1FDF91CF910895CF9267
:10216000DF92EF92FF92CF93DF936C01990FEE080D
:10217000FF08F7FE23C06DE28BE093E00E94DD04D0
:10218000EC0144275527BA014C195D096E097F09F6
:102190002AE08BE093E00E945010C80FD91F6DE435
:1021A00071E08BE093E00E9441108C0F9D1FDF9146
:1021B000CF91FF90EF90DF90CF9008952AE0B70184
:1021C000A6018BE093E00E945010EC01E8CF2F9223
:1021D0003F924F925F926F927F928F929F92AF92B7
:1021E000BF92CF92DF92EF92FF921F93CF93DF9334
:1021F000EC016A017B01722EAB019601CB01B601A5
:102200000E94A91B60E571E0811126C046015701BB
:10221000E894B7F82FEF3FEF4FE75FE7C501B40150
:102220000E94A91B81110CC02FEF3FEF4FE75FE722
:10223000C501B4010E949B1964E571E0181664F0B1
:102240002FEF3FEF4FE75FE4C701B6010E94371B56
:102250001816B4F468E571E0CE01DF91CF911F91BB
:10226000FF90EF90DF90CF90BF90AF909F908F90B6
:102270007F906F905F904F903F902F900C94411003
:102280002FEF3FEF4FE75FECC701B6010E949B19AC
:1022900087FDE0CF20E030E0A901C701B6010E9430
:1022A0009B19312C212C87FF0DC0E881F981019009
:1022B000F081E02D6DE2CE0109951C01F7FAF09452
:1022C000F7F8F09410E060E070E080E09FE37116B2
:1022D00041F020E030E040E251E40E94A5191F5F88
:1022E000F6CFA70196010E942F192B013C010E94F5
:1022F000171A4B015C012AE0BC01A401CE010E9427
:1023000050107C01E20CF31C1123E1F1C501B40172
:102310000E94461A9B01AC01C301B2010E942E1912
:102320004B015C01E881F9810190F081E02D6EE2C2
:10233000CE010995E80EF91E115020F120E030E0A1
:1023400040E251E4C501B4010E943C1B2B013C0159
:102350000E94171A4B01B12CA12C2AE0B501A4014F
:10236000CE010E945010E80EF91EC501B4010E9472
:10237000461A9B01AC01C301B2010E942E194B0108
:102380005C01DACFC701DF91CF911F91FF90EF90F1
:10239000DF90CF90BF90AF909F908F907F906F9085
:1023A0005F904F903F902F900895CF93DF93AB01B4
:1023B000BC0122E08BE093E00E94E710EC016DE4A9
:1023C00071E08BE093E00E9441108C0F9D1FDF9124
:1023D000CF9108951F93CF93DF9385ED8093BC0039
:1023E0008091470290914802A0914902B0914A021F
:1023F0000796A11DB11D23E0B695A79597958795E2
:102400002A95D1F72091BC0024FD03C010928F02C1
:1024100052C0409147025091480260914902709128
:102420004A02452B462B472B69F30097A105B105BE
:1024300041F02AE22A95F1F700C00197A109B109FC
:10244000E1CF80914602C1E0C0934502882399F113
:10245000D091B8001091BA008091BC008A7B809323
:10246000BC0060E082E10E94AD0360E083E10E9475
:10247000AD0310928F02C09391021092900261E01E
:1024800082E10E94AD0361E083E10E94AD0380918F
:10249000B9008E7F8093B9008091B9008D7F8093C1
:1024A000B90088E48093B80085E48093BC00109361
:1024B000BA00D093B800DF91CF911F910895FC012D
:1024C000A081B18150962C9182AD38E0839FC001EC
:1024D0001124289FA001299F500D112470E060E075
:1024E00080AD91AD0C941F1C1F920F920FB60F92EE
:1024F00011242F933F938F939F93AF93BF9380911A
:10250000030390910403A0910503B0910603309159
:10251000020323E0230F2D3758F50196A11DB11DAD
:10252000209302038093030390930403A093050375
:10253000B09306038091070390910803A0910903CB
:10254000B0910A030196A11DB11D809307039093DA
:102550000803A0930903B0930A03BF91AF919F9121
:102560008F913F912F910F900FBE0F901F90189554
:1025700026E8230F0296A11DB11DD2CF1F920F9204
:102580000FB60F9211242F933F934F935F936F9346
:102590007F938F939F93AF93BF93EF93FF93E091BC
:1025A0000201F09103010995FF91EF91BF91AF9165
:1025B0009F918F917F916F915F914F913F912F915B
:1025C0000F900FBE0F901F9018951F920F920FB68D
:1025D0000F9211242F933F934F935F936F937F93A9
:1025E0008F939F93AF93BF93EF93FF93E09100017D
:1025F000F09101010995FF91EF91BF91AF919F91EA
:102600008F917F916F915F914F913F912F910F909B
:102610000FBE0F901F9018951F920F920FB60F923A
:1026200011242F933F934F935F936F937F938F93D7
:102630009F93AF93BF93EF93FF938BE093E00E9440
:10264000BB04FF91EF91BF91AF919F918F917F91CB
:102650006F915F914F913F912F910F900FBE0F900F
:102660001F9018951F920F920FB60F9211242F935F
:102670008F939F93EF93FF93E0911B03F0911C03C3
:102680008081E0912103F091220382FD1BC09081A3
:10269000809124038F5F8F7320912503821741F06F
:1026A000E0912403F0E0E55FFC4F958F80932403D5
:1026B000FF91EF919F918F912F910F900FBE0F90EF
:1026C0001F9018958081F4CF1F920F920FB60F9232
:1026D00011242F933F934F935F936F937F938F9327
:1026E0009F93AF93BF93EF93FF938091B900887F3F
:1026F000803609F44AC0F0F5883209F4A5C018F50F
:10270000803109F499C0B8F4882309F4F5C0883001
:1027100009F492C0FF91EF91BF91AF919F918F917A
:102720007F916F915F914F913F912F910F900FBECD
:102730000F901F901895883109F486C0803251F7A8
:1027400080938E0214C0803409F49BC040F480331F
:10275000B9F38833F9F680938E0285ECAEC08035EC
:1027600009F483C0883509F494C0883499F60E942E
:10277000EA11D0CF883909F48AC038F5883729F0B2
:1027800050F4883611F0803729F683E080938F0269
:1027900010928D0255C0883809F479C0803919F03B
:1027A000803809F0B7CF80918D02803208F06FC079
:1027B000E0918D0281E08E0F80938D028091BB00AD
:1027C000F0E0E359FD4F80833BC0803B39F0D0F40B
:1027D000803A09F477C0883A09F09CCF84E080936E
:1027E0008F0210926C0210926B02F0E0E0E009950B
:1027F00080916B0281110FC081E080936B02109277
:102800004B0209C0803C09F4A8CF883C09F4A5CF4D
:10281000883B09F07FCFE0916C0281E08E0F8093BE
:102820006C02F0E0E55BFD4F80818093BB009091EE
:102830006C0280916B0229C08091B4028093BB002E
:1028400085EC8093BC0066CF9091B3028091B20278
:10285000981758F5E091B30281E08E0F8093B30290
:10286000F0E0EE56FD4F8081E9CFE091B30281E0C8
:102870008E0F8093B3028091BB00F0E0EE56FD4FC7
:1028800080839091B3028091B2029817C8F285E8D4
:10289000D8CFE091B30281E08E0F8093B302809194
:1028A000BB00F0E0EE56FD4F8083809191028111D4
:1028B0005ECF81E08093900284EA8093BC00109206
:1028C0008F0228CF85EC8093BC0010928F028091FC
:1028D0008D02803230F4E0918D02F0E0E359FD4F3B
:1028E000108260918D0270E08DE692E0F0E0E0E011
:1028F000099510928D020ECF10928E0238CFCF9391
:10290000DF9310920E0310920D0388EE93E0A0E087
:10291000B0E080930F0390931003A0931103B09342
:1029200012038DE291E090930C0380930B0385ECEE
:1029300090E0909318038093170384EC90E09093B9
:102940001A038093190380EC90E090931C0380930A
:102950001B0381EC90E090931E0380931D0382EC97
:1029600090E09093200380931F0386EC90E0909377
:1029700022038093210310922403109225031092C6
:102980002603109227031092AB071092AA0782EE3B
:1029900092E0909339088093380810923B08109287
:1029A0003A0810923D0810923C081092C4078FE339
:1029B00091E09093A9078093A8071092AD07109219
:1029C000AC071092C1071092B8071092B907109285
:1029D000BA071092BB078FEF8093C2078093C60798
:1029E000EAECF7E080EE97E0CFEFC1938E179F07F8
:1029F000E1F78AE596E09093B1078093B00788E805
:102A000098E09093B3078093B20784E997E090939E
:102A1000B5078093B40786E99CE09093B70780934D
:102A2000B60730E020E040E069E08CEA97E00E94E1
:102A30005A0610920708109206088CEE92E09093C6
:102A4000E1078093E00788EA93E09093E50780939D
:102A5000E407D8E0D093E6071092E7071092150834
:102A6000109235081092310881E0809336088093E7
:102A7000370887E491E09093E3078093E2078CEABC
:102A800097E00E94D0081092FF071092FE07109264
:102A90000308109202088FEF9FEF90930108809334
:102AA00000089093050880930408E091E207F091F4
:102AB000E3070280F381E02D8CEA97E009958BE52E
:102AC00093E0909309088093080810921808D09317
:102AD000CA0789E08093CB078AE08093CC0785E022
:102AE0008093CD0780E18093CE0783E18093CF0769
:102AF00086E08093D00787E08093D10782E18093BE
:102B0000D20781E18093D4078EE08093D3078FE0D2
:102B10008093D807C093D907C093D507DF91CF9191
:102B20000895789484B5826084BD84B5816084BD45
:102B300085B5826085BD85B5816085BD80916E005B
:102B4000816080936E00109281008091810082608C
:102B500080938100809181008160809381008091C9
:102B600080008160809380008091B10084608093B8
:102B7000B1008091B00081608093B00080917A00B4
:102B8000846080937A0080917A00826080937A00DA
:102B900080917A00816080937A0080917A008068C9
:102BA00080937A001092C100E0911B03F0911C0306
:102BB00082E08083E0911703F09118031082E09186
:102BC0001903F0911A0380E1808310922303E091AE
:102BD0001F03F091200386E08083E0911D03F091B4
:102BE0001E03808180618083E0911D03F0911E03AC
:102BF000808188608083E0911D03F0911E038081B5
:102C000080688083E0911D03F0911E0380818F7D99
:102C1000808360E082E00E94DB0360E083E00E944A
:102C2000DB0361E08BE00E94DB0361E08CE00E944B
:102C3000DB0361E08DE00E94DB0360E08BE00E943B
:102C4000AD0360E08CE00E94AD0360E08DE00E9487
:102C5000AD038DE59DE0909301018093000180918B
:102C60006900836080936900E89A88E49DE090930E
:102C70000301809302010E94750361E089E00E94D4
:102C8000DB0360E089E00E94AD03E091B007F091C2
:102C9000B10730E020E040E06AE08CEA97E0099577
:102CA00080913708882321F08CEA97E00E945F1218
:102CB00080E00E945E038CEA97E00E943A0CC0918B
:102CC000E7078091E607C80FE091AC07F091AD07E8
:102CD0008189C81708F44AC28CEA97E00E94A205CD
:102CE00080E00E945E03E091B007F091B10730E010
:102CF00020E040E06BE08CEA97E00995F9E12F2EA7
:102D0000312CADE5AA2EADE0BA2EB2E08B2E912C7F
:102D100080910103882309F459C08091000388231E
:102D200009F454C010920103109200036091FC0258
:102D30007091FD028091FE029091FF020091F802D5
:102D40001091F9022091FA023091FB02601B710B85
:102D5000820B930B8B019C0109571C4E2F4F3F4F49
:102D60000F30174221053105F8F40E94481A9B01E3
:102D7000AC016091F4027091F5028091F60290919D
:102D8000F7020E942F196093F4027093F50280936A
:102D9000F6029093F7028091F2029091F30201966D
:102DA0009093F3028093F202B0920101A09200018D
:102DB00080916900836080936900E89A88E49DE0CF
:102DC00090930301809302010E9475036091F202C7
:102DD0007091F3026A3071050CF4BBC1072E000C30
:102DE000880B990B0E94481A9B01AC016091F40278
:102DF0007091F5028091F6029091F7020E94A51958
:102E000020E034E244E759E40E94A5196093F402FB
:102E10007093F5028093F6029093F7028CE591E0AF
:102E20000E949C1020E030E048E452E46091F402FB
:102E30007091F5028091F6029091F7020E943C1B7E
:102E400020E030E044EB53E40E943C1B6093EE0230
:102E50007093EF028093F0029093F1026BE771E0C0
:102E60008BE093E00E9441106091EE027091EF02BE
:102E70008091F0029091F1020E94D51129E33AEF7E
:102E80004EE85CE36091EE027091EF028091F002F7
:102E90009091F1020E943C1B0E94A01960930401D2
:102EA00070930501809306019093070165E971E035
:102EB0008BE093E00E944110609104017091050144
:102EC00080910601909107010E94D5116CEA71E092
:102ED0008BE093E00E9441108091EC029091ED0212
:102EE0000E94AF1064EB71E08BE093E00E94411010
:102EF0008091EB0290E00E94AF108CE591E00E947F
:102F00009C101092F4021092F5021092F6021092A8
:102F1000F7021092F3021092F202C090E702D090F2
:102F2000E802E090E902F090EA024090040150903B
:102F3000050160900601709007012AE939E949E727
:102F40005FE3C701B6010E943C1BA30192010E94EE
:102F5000371B181684F023E333E343E85FE3C7012C
:102F6000B6010E943C1B9B01AC01C301B2010E944F
:102F7000371B18162CF48091EB0281111092EB0292
:102F80008091EB028111E5C0E898ECE3F4E0F09366
:102F90000101E0930001E998F0930301E09302013D
:102FA0004091040150910501609106017091070163
:102FB000C091EC02D091ED028091E5029091E60281
:102FC000FC01EE0FFF1FEB52FD4FD183C0839C012C
:102FD0002F5F3F4F3093E6022093E502880F991F41
:102FE000880F991FFC01EB54FD4F4083518362838E
:102FF0007383283031050CF4C3C01092E60210929E
:10300000E502F1E0F093EB0295EBE92E92E0F92E68
:10301000D0E0C0E010E000E0F701419051906190F5
:1030200071907F01A30192016091B5027091B60287
:103030008091B7029091B8020E949B1987FF09C046
:103040004092B5025092B6026092B7027092B802F6
:10305000E8010F5F1F4F08301105F1F68091B502AE
:103060009091B602A091B702B091B8028093E702A6
:103070009093E802A093E902B093EA02CC0FDD1F1F
:10308000CB52DD4F888199819093ED028093EC02C1
:103090000E94F00F84EC91E00E949C106091E70286
:1030A0007091E8028091E9029091EA020E94D511A4
:1030B0008091EC029091ED020E94AF1084EC91E0BF
:1030C0000E949C108CEA97E00E945F120E94830B82
:1030D00090923B0880923A088AE090E090933D08F5
:1030E00080933C0863EE71E088EA97E00E9441100B
:1030F000E2E3F0E0F0933B08E0933A0830923D08B9
:1031000020923C084091E7025091E8026091E90268
:103110007091EA0222E088EA97E00E94E7108CEAC8
:1031200097E00E943A0C8CEA97E00E94A205B092C8
:103130000101A09200018091690083608093690081
:10314000E89A88E49DE090930301809302010E9435
:10315000750380E090E0892B09F4DACD0E94A70482
:10316000882309F4D5CD0E940000D2CD8091370884
:10317000882321F08CEA97E00E945F128C2F99CD72
:103180004090EE025090EF026090F0027090F102D9
:1031900020E030E0A901C301B2010E949B1987FF22
:1031A00047C02196D093ED02C093EC028091EC02CF
:1031B0009091ED0297FF48C01092ED021092EC0240
:1031C0008CEA97E00E945F120E94830B90923B086A
:1031D00080923A088AE090E090933D0880933C0802
:1031E00068EF71E088EA97E00E944110E2E3F0E0C6
:1031F000F0933B08E0933A0830923D0820923C0857
:103200004091040150910501609106017091070100
:1032100022E088EA97E00E94E7108CEA97E00E949B
:103220003A0C8CEA97E00E94A2050E94F00F91CF21
:1032300020E030E0A901C301B2010E94371B18163B
:103240000CF0B4CF2197AECF08970CF4B9CFE7E0DC
:10325000F0E0F093ED02E093EC02B2CF5058BB27C0
:10326000AA270E9446190C94E91A0E94B01A38F055
:103270000E94B71A20F039F49F3F19F426F40C94F9
:10328000AD1A0EF4E095E7FB0C94A71AE92F0E9403
:103290000E1B58F3BA17620773078407950720F0CF
:1032A00079F4A6F50C94301B0EF4E0950B2EBA2F92
:1032B000A02D0B01B90190010C01CA01A00111243C
:1032C000FF27591B99F0593F50F4503E68F11A16E8
:1032D000F040A22F232F342F4427585FF3CF469579
:1032E00037952795A795F0405395C9F77EF41F169B
:1032F000BA0B620B730B840BBAF09150A1F0FF0F65
:10330000BB1F661F771F881FC2F70EC0BA0F621F50
:10331000731F841F48F4879577956795B795F79540
:103320009E3F08F0B0CF9395880F08F09927EE0FD5
:103330009795879508950E94831A08F481E008956F
:103340000E94C01AE3950C94FA1A0E94B9190C94C1
:10335000E91A0E94B71A58F00E94B01A40F029F4F6
:103360005F3F29F00C94A71A51110C94311B0C9457
:10337000AD1A0E940E1B68F39923B1F3552391F304
:10338000951B550BBB27AA2762177307840738F0D4
:103390009F5F5F4F220F331F441FAA1FA9F335D031
:1033A0000E2E3AF0E0E832D091505040E695001CE5
:1033B000CAF72BD0FE2F29D0660F771F881FBB1F9F
:1033C000261737074807AB07B0E809F0BB0B802D7D
:1033D000BF01FF2793585F4F3AF09E3F510578F0A9
:1033E0000C94A71A0C94311B5F3FE4F3983ED4F37E
:1033F000869577956795B795F7959F5FC9F7880F7D
:10340000911D9695879597F90895E1E0660F771FCE
:10341000881FBB1F621773078407BA0720F0621B5F
:10342000730B840BBA0BEE1F88F7E09508950E948A
:10343000161B88F09F5798F0B92F9927B751B0F015
:10344000E1F0660F771F881F991F1AF0BA95C9F728
:1034500014C0B13091F00E94301BB1E008950C947B
:10346000301B672F782F8827B85F39F0B93FCCF32E
:10347000869577956795B395D9F73EF490958095A5
:10348000709561957F4F8F4F9F4F0895E89409C0C5
:1034900097FB3EF490958095709561957F4F8F4F87
:1034A0009F4F9923A9F0F92F96E9BB279395F6959D
:1034B000879577956795B795F111F8CFFAF4BB0F1B
:1034C00011F460FF1BC06F5F7F4F8F4F9F4F16C07F
:1034D000882311F096E911C0772321F09EE8872F09
:1034E000762F05C0662371F096E8862F70E060E0C5
:1034F0002AF09A95660F771F881FDAF7880F96953E
:10350000879597F90895990F0008550FAA0BE0E8E1
:10351000FEEF16161706E807F907C0F01216130695
:10352000E407F50798F0621B730B840B950B39F4D5
:103530000A2661F0232B242B252B21F408950A263B
:1035400009F4A140A6958FEF811D811D089597F97B
:103550009F6780E870E060E008959FEF80EC089539
:1035600000240A9416161706180609060895002462
:103570000A94121613061406050608950C94AD1A43
:103580000E94161BD8F3E894E0E0BB279F57F0F0A9
:103590002AED3FE049EC06C0EE0FBB0F661F771F18
:1035A000881F28F0B23A62077307840728F0B25ADE
:1035B000620B730B840BE3959A9572F7803830F4A5
:1035C0009A95BB0F661F771F881FD2F790480C94FF
:1035D000B01B092E0394000C11F4882352F0BB0F8A
:1035E00040F4BF2B11F460FF04C06F5F7F4F8F4F1B
:1035F0009F4F0895EF93E0FF07C0A2EA2AED3FE056
:1036000049EC5FEB0E9446190E94E91A0F9003945F
:1036100001FC9058E8E6F0E00C94BC1B57FD905874
:10362000440F551F59F05F3F71F04795880F97FB86
:10363000991F61F09F3F79F0879508951216130640
:103640001406551FF2CF4695F1DF08C0161617066F
:103650001806991FF1CF86957105610508940895A4
:10366000E894BB2766277727CB0197F908950E9436
:10367000831A08F48FEF08950E944F1B0C94E91AE7
:103680000E94B01A38F00E94B71A20F0952311F06A
:103690000C94A71A0C94AD1A11240C94311B0E949F
:1036A0000E1B70F3959FC1F3950F50E0551F629F5D
:1036B000F001729FBB27F00DB11D639FAA27F00D8B
:1036C000B11DAA1F649F6627B00DA11D661F829FB2
:1036D0002227B00DA11D621F739FB00DA11D621F97
:1036E000839FA00D611D221F749F3327A00D611DB4
:1036F000231F849F600D211D822F762F6A2F112496
:103700009F5750409AF0F1F088234AF0EE0FFF1FC8
:10371000BB1F661F771F881F91505040A9F79E3F1F
:10372000510580F00C94A71A0C94311B5F3FE4F311
:10373000983ED4F3869577956795B795F795E79575
:103740009F5FC1F7FE2B880F911D9695879597F97E
:1037500008950E94831A880B990B08959F3F31F0BA
:10376000915020F4879577956795B795880F911DAF
:103770009695879597F908959F938F937F936F936D
:10378000FF93EF939B01AC010E943C1BEF91FF91D3
:103790000E94D01B2F913F914F915F910C943C1B45
:1037A000DF93CF931F930F93FF92EF92DF927B01F2
:1037B0008C01689406C0DA2EEF010E944F1BFE01B7
:1037C000E894A5912591359145915591A6F3EF0186
:1037D0000E944619FE019701A801DA9469F7DF906B
:1037E000EF90FF900F911F91CF91DF910895A1E28B
:1037F0001A2EAA1BBB1BFD010DC0AA1FBB1FEE1F6B
:10380000FF1FA217B307E407F50720F0A21BB30BB5
:10381000E40BF50B661F771F881F991F1A9469F731
:1038200060957095809590959B01AC01BD01CF018D
:103830000895EE0FFF1F0590F491E02D0994DC012F
:1038400001C06D9341505040E0F70895F894FFCFC8
:103850003C043C040000803F153EFF153FFF15C0AF
:10386000FF0001641405060C4B00093D000004C86C
:10387000FA100800008000400000000000DD043D58
:10388000046A042A059B0479048D04000000009A50
:103890000D720DED0FEC0FD0085B09C0080D0A008A
:1038A0006E616E00696E66006F7666002F2F2F2F97
:1038B0002F2F2F2F2F2F2F2F2F2F2F2F2F2F2F2F18
:1038C0002F2F2F2F2F2F2F2F2F2F00506861736531
:1038D00020446966666572656E636520696E204482
:1038E00065673A2000506F77657220466163746F98
:1038F000722052756E6E696E673A2000636170497E
:103900006E3A200050465F43616C63756C6174656C
:10391000643A20005F5F5F5F5F5F5F5F5F5F5F5F75
:103920005F5F5F5F5F5F5F5F5F5F5F5F5F5F5F5FA7
:103930005F5F004F7074696D616C20506F776572C6
:1039400020466163746F720052756E6E696E6720F7
:0E395000506F77657220466163746F720000DD
:107E0000112484B714BE81FFF0D085E080938100F7
:107E100082E08093C00088E18093C10086E0809377
:107E2000C20080E18093C4008EE0C9D0259A86E02C
:107E300020E33CEF91E0309385002093840096BBD3
:107E4000B09BFECF1D9AA8958150A9F7CC24DD24C4
:107E500088248394B5E0AB2EA1E19A2EF3E0BF2EE7
:107E6000A2D0813461F49FD0082FAFD0023811F036
:107E7000013811F484E001C083E08DD089C08234E0
:107E800011F484E103C0853419F485E0A6D080C0E4
:107E9000853579F488D0E82EFF2485D0082F10E0AE
:107EA000102F00270E291F29000F111F8ED06801E7
:107EB0006FC0863521F484E090D080E0DECF843638
:107EC00009F040C070D06FD0082F6DD080E0C81688
:107ED00080E7D80618F4F601B7BEE895C0E0D1E017
:107EE00062D089930C17E1F7F0E0CF16F0E7DF06D8
:107EF00018F0F601B7BEE89568D007B600FCFDCFD4
:107F0000A601A0E0B1E02C9130E011968C91119780
:107F100090E0982F8827822B932B1296FA010C0160
:107F200087BEE89511244E5F5F4FF1E0A038BF0790
:107F300051F7F601A7BEE89507B600FCFDCF97BE46
:107F4000E89526C08437B1F42ED02DD0F82E2BD052
:107F50003CD0F601EF2C8F010F5F1F4F84911BD097
:107F6000EA94F801C1F70894C11CD11CFA94CF0C13
:107F7000D11C0EC0853739F428D08EE10CD085E9AC
:107F80000AD08FE07ACF813511F488E018D01DD067
:107F900080E101D065CF982F8091C00085FFFCCF94
:107FA0009093C60008958091C00087FFFCCF809118
:107FB000C00084FD01C0A8958091C6000895E0E648
:107FC000F0E098E1908380830895EDDF803219F02E
:107FD00088E0F5DFFFCF84E1DECF1F93182FE3DFCA
:107FE0001150E9F7F2DF1F91089580E0E8DFEE27F6
:047FF000FF270994CA
:027FFE00040479
:00000001FF
